{
  "contractName": "People",
  "abi": [
    {
      "constant": true,
      "inputs": [
        {
          "name": "",
          "type": "uint256"
        }
      ],
      "name": "people",
      "outputs": [
        {
          "name": "firstName",
          "type": "bytes32"
        },
        {
          "name": "lastName",
          "type": "bytes32"
        },
        {
          "name": "age",
          "type": "uint256"
        }
      ],
      "payable": false,
      "stateMutability": "view",
      "type": "function"
    },
    {
      "constant": false,
      "inputs": [
        {
          "name": "_firstName",
          "type": "bytes32"
        },
        {
          "name": "_lastName",
          "type": "bytes32"
        },
        {
          "name": "_age",
          "type": "uint256"
        }
      ],
      "name": "addPerson",
      "outputs": [
        {
          "name": "sucess",
          "type": "bool"
        }
      ],
      "payable": false,
      "stateMutability": "nonpayable",
      "type": "function"
    },
    {
      "constant": true,
      "inputs": [],
      "name": "getPeople",
      "outputs": [
        {
          "name": "",
          "type": "bytes32[]"
        },
        {
          "name": "",
          "type": "bytes32[]"
        },
        {
          "name": "",
          "type": "uint256[]"
        }
      ],
      "payable": false,
      "stateMutability": "view",
      "type": "function"
    }
  ],
  "bytecode": "0x6060604052341561000f57600080fd5b6105628061001e6000396000f300606060405260043610610057576000357c0100000000000000000000000000000000000000000000000000000000900463ffffffff1680634f995d081461005c578063773b82a3146101565780639e7a13ad146101ab575b600080fd5b341561006757600080fd5b61006f610200565b60405180806020018060200180602001848103845287818151815260200191508051906020019060200280838360005b838110156100ba57808201518184015260208101905061009f565b50505050905001848103835286818151815260200191508051906020019060200280838360005b838110156100fc5780820151818401526020810190506100e1565b50505050905001848103825285818151815260200191508051906020019060200280838360005b8381101561013e578082015181840152602081019050610123565b50505050905001965050505050505060405180910390f35b341561016157600080fd5b610191600480803560001916906020019091908035600019169060200190919080359060200190919050506103a5565b604051808215151515815260200191505060405180910390f35b34156101b657600080fd5b6101cc6004808035906020019091905050610444565b6040518084600019166000191681526020018360001916600019168152602001828152602001935050505060405180910390f35b61020861047d565b61021061047d565b610218610491565b600061022261047d565b61022a61047d565b610232610491565b600061023c6104a5565b6000805490509550856040518059106102525750595b90808252806020026020018201604052509450856040518059106102735750595b90808252806020026020018201604052509350856040518059106102945750595b90808252806020026020018201604052509250600091505b85821015610391576000828154811015156102c357fe5b90600052602060002090600302016060604051908101604052908160008201546000191660001916815260200160018201546000191660001916815260200160028201548152505090508060000151858381518110151561032057fe5b9060200190602002019060001916908160001916815250508060200151848381518110151561034b57fe5b9060200190602002019060001916908160001916815250508060400151838381518110151561037657fe5b906020019060200201818152505081806001019250506102ac565b848484985098509850505050505050909192565b60006103af6104a5565b8481600001906000191690816000191681525050838160200190600019169081600019168152505082816040018181525050600080548060010182816103f591906104cd565b9160005260206000209060030201600083909190915060008201518160000190600019169055602082015181600101906000191690556040820151816002015550505060019150509392505050565b60008181548110151561045357fe5b90600052602060002090600302016000915090508060000154908060010154908060020154905083565b602060405190810160405280600081525090565b602060405190810160405280600081525090565b6060604051908101604052806000801916815260200160008019168152602001600081525090565b8154818355818115116104fa576003028160030283600052602060002091820191016104f991906104ff565b5b505050565b61053391905b8082111561052f576000808201600090556001820160009055600282016000905550600301610505565b5090565b905600a165627a7a72305820de40a0b1888d97ff6b13ed11a10bb4af2a569739f8958ff1bb6ea588b46015540029",
  "source": "pragma solidity ^0.4.17;\n\ncontract People {\n\n  Person[] public people;\n\n  struct Person {\n    bytes32 firstName;\n    bytes32 lastName;\n    uint age;\n  }\n\n  function addPerson(bytes32 _firstName, bytes32 _lastName, uint _age) public returns (bool sucess) {\n      Person memory newPerson;\n      newPerson.firstName = _firstName;\n      newPerson.lastName = _lastName;\n      newPerson.age = _age;\n\n      people.push(newPerson);\n      return true;\n  }\n\n  function getPeople() constant returns (bytes32[], bytes32[],uint[]) {\n\n    uint length = people.length;\n\n    bytes32[] memory firstNames = new bytes32[](length);\n    bytes32[] memory lastNames = new bytes32[](length);\n    uint[] memory ages = new uint[](length);\n\n    for(uint i = 0; i < length; i++){\n      Person memory currentPerson;\n      currentPerson = people[i];\n\n      firstNames[i] = currentPerson.firstName;\n      lastNames[i] = currentPerson.lastName;\n      ages[i] = currentPerson.age;\n\n    }\n\n    return (firstNames, lastNames, ages);\n  }\n}\n",
  "sourcePath": "/home/daljeet/Desktop/Ethereum/peoplelist/contracts/People.sol",
  "compiler": {
    "name": "solc",
    "version": "0.4.21+commit.dfe3193c.Emscripten.clang"
  },
  "schemaVersion": "2.0.0",
  "updatedAt": "2018-04-10T01:46:25.175Z"
}